:020000004A288C
:0E0006000030831203138C1A0130F000080042
:10001400831603139816903083129800831687175B
:10002400071383128C1E19281A08F00013280800DD
:10003400831203131A08F100981C222818121816A8
:060044007108F000080045
:10004A003428353083120313860049281530860078
:10005A004928253086004928C53086004928831258
:10006A000313230884000008003A031926282308EA
:10007A0084000008023A03192B2823088400000888
:0A008A00043A03192E28312808005B
:100094008316031386013330990018150A200320B0
:1000A4007008013A031D5C281A207008A20022304F
:0800B400A300252051285D285E
:02400E004A2F37
:00000001FF
