:02000000B9291C
:0E000600213083120313FD00FD0B07280800B4
:100014000F3083120313FC004730FD00FD0B102842
:0A002400FC0B10280000000008008B
:06002E00000000000800C4
:1000340083120313D71B2028061321280617571BE6
:100044002528861026288614D71A2A2806112B2834
:100054000615571A2F288611302886154C1834286F
:10006400061635280612861617208612D7193C283C
:1000740006133D280617571941288610422886146E
:10008400D718462806114728061557184B288611F5
:100094004C2886154C185028061651280612861628
:1000A400172086124C1C58280A20592803200800BF
:1000B400831203134C105608D7001A204C1408005E
:1000C4000E3083120313FD00FD0B662800000800A8
:0E00D4008312031350088A004F0882000800B0
:1000E2008316031398187728000071288312520888
:0400F2009900080069
:1000F600831203139F01C0309F042009F00070088B
:1001060083169F051F179F1783125208F000F00DE4
:100116007010F00D7010F00D701070089F041F1411
:1001260062201F151F1D9928000095281F101E0804
:10013600F100F00183161E08F0040030F1040800F7
:10014600B528803083120313D200C828C030D200ED
:10015600C8289430D200C828D430D200C8288030AD
:10016600D200C828831203135208013A0319A4289F
:100176005208023A0319A9285208033A0319AC286F
:100186005208043A0319AF28B2285303F000520864
:10019600F0077008D2007008D7001A204C10D5015D
:1001A60055085407840000080319E1285508540728
:1001B60084000008D6005A20D50AD3284C1408001B
:1001C60083120313D2017B2070088312CD007108BD
:1001D600CE000130D7001A208030F00080304E0665
:1001E6007002031DF8284D08A03C031808290330A7
:1001F600510784000008D20071200230D20001307D
:10020600D3002530D400A320142951088400000807
:10021600D20071200230D2000130D3003F30D4002A
:04022600A320080009
:10022A0083120313881D2229081D2229033051072E
:10023A0084000008D20071203829881D2B29023039
:10024A00510784000008D20071203829081D33297B
:10025A00510A84000008D20071203829510884000C
:08026A000008D2007120080019
:10027200FF3083120313C900FF30CA00FF30CB00E6
:10028200FF309F01C0309F042009F00070088316E0
:0C0292009F051F179F1783121F14080000
:10029E008316031386120612861106118610061394
:1002AE0083128612061206138610061186110A2074
:1002BE000A200A20061586158616172086120A2091
:1002CE008616172086120A208616172086120A20F6
:1002DE0086118616172086120A2086161720861279
:1002EE00061106178616172086120A200613861583
:1002FE0086161720861286118616172086120A2059
:10030E0086161720861286158616172086120A2044
:10031E008611861617208612061786140615861560
:0C032E008616172086120A204C140800C6
:10033A006A208A110A128000840ACF0A0319D00A95
:08034A00F003031D9D290800CA
:10035200831603139816903083129800831687171A
:10036200071383128C1EB8291A08F000B22908005C
:100372000E224F210130D7001A200C30D7001A204C
:100382000130D2000130D3003430D400A3200E302B
:1003920083168804081083120810D0308B041030A2
:1003A20090003330831699001815A9213921213084
:0E03B200D10015212130D100E320D829DF2908
:10041C0020308400293083120313F000E530CF0024
:08042C000130D0009D21080001
:0203CA000F34EE
:0803CC00003402340434123441
:1003D4004F3462346A346534633474342034693499
:0E03E4006E34663472346F346E347434003408
:1003F2004C34613477346E3442346F347434203484
:060402003A3429340034F5
:100408004D346F34773469346E3467342E342E3477
:040418002E3400344A
:02400E004A2F37
:00000001FF
